{
  "address": "0x4e7dD148A6E5039225B9637fb132Ff356FF83D37",
  "abi": [
    {
      "inputs": [
        {
          "internalType": "string",
          "name": "letterColor",
          "type": "string"
        },
        {
          "internalType": "string",
          "name": "backgroundColor",
          "type": "string"
        },
        {
          "internalType": "string",
          "name": "borderColor",
          "type": "string"
        },
        {
          "internalType": "string",
          "name": "letter",
          "type": "string"
        },
        {
          "internalType": "uint256",
          "name": "points",
          "type": "uint256"
        }
      ],
      "name": "generateSVG",
      "outputs": [
        {
          "internalType": "string",
          "name": "",
          "type": "string"
        }
      ],
      "stateMutability": "pure",
      "type": "function"
    },
    {
      "inputs": [
        {
          "internalType": "uint256",
          "name": "index",
          "type": "uint256"
        }
      ],
      "name": "getColors",
      "outputs": [
        {
          "internalType": "string",
          "name": "",
          "type": "string"
        },
        {
          "internalType": "string",
          "name": "",
          "type": "string"
        },
        {
          "internalType": "string",
          "name": "",
          "type": "string"
        }
      ],
      "stateMutability": "pure",
      "type": "function"
    },
    {
      "inputs": [],
      "name": "getColorsLength",
      "outputs": [
        {
          "internalType": "uint256",
          "name": "",
          "type": "uint256"
        }
      ],
      "stateMutability": "pure",
      "type": "function"
    }
  ],
  "transactionHash": "0xa6981f8719f3ba7bf2dfc9514dad7d3f71748044d4f411964efab84d16e4e870",
  "args": [],
  "numDeployments": 1,
  "solcInputHash": "f7fa8f5cc3814f118f259131637a9520",
  "bytecode": "0x61187a610053600b82828239805160001a607314610046577f4e487b7100000000000000000000000000000000000000000000000000000000600052600060045260246000fd5b30600052607381538281f3fe730000000000000000000000000000000000000000301460806040526004361061004b5760003560e01c80631ea71494146100505780639344341114610080578063f31196821461009e575b600080fd5b61006a60048036038101906100659190610ba3565b6100d0565b6040516100779190610d0d565b60405180910390f35b6100886101f7565b6040516100959190610d3e565b60405180910390f35b6100b860048036038101906100b39190610d59565b610200565b6040516100c793929190610d86565b60405180910390f35b60606000600983116100e257866100e4565b845b905060006009841161012b576040518060400160405280600481526020017f3936707800000000000000000000000000000000000000000000000000000000815250610162565b6040518060400160405280600481526020017f39307078000000000000000000000000000000000000000000000000000000008152505b90506000868860405160200161017992919061112c565b6040516020818303038152906040529050600089610196876102b2565b6040516020016101a7929190611334565b6040516020818303038152906040529050818a858c8787888d886040516020016101d99998979695949392919061167c565b60405160208183030381529060405294505050505095945050505050565b60006007905090565b606080606060078410610248576040517f08c379a000000000000000000000000000000000000000000000000000000000815260040161023f906117c6565b60405180910390fd5b610250610380565b8460078110610262576102616117e6565b5b602002015161026f610533565b8560078110610281576102806117e6565b5b602002015161028e6106e6565b86600781106102a05761029f6117e6565b5b60200201519250925092509193909250565b6060600060016102c184610899565b01905060008167ffffffffffffffff8111156102e0576102df610a42565b5b6040519080825280601f01601f1916602001820160405280156103125781602001600182028036833780820191505090505b509050600082602001820190505b600115610375578080600190039150507f3031323334353637383961626364656600000000000000000000000000000000600a86061a8153600a858161036957610368611815565b5b04945060008503610320575b819350505050919050565b6103886109ec565b6040518060e001604052806040518060400160405280600781526020017f233137323535340000000000000000000000000000000000000000000000000081525081526020016040518060400160405280600781526020017f233362303736340000000000000000000000000000000000000000000000000081525081526020016040518060400160405280600781526020017f233530303732340000000000000000000000000000000000000000000000000081525081526020016040518060400160405280600781526020017f233433313430370000000000000000000000000000000000000000000000000081525081526020016040518060400160405280600781526020017f233035326531360000000000000000000000000000000000000000000000000081525081526020016040518060400160405280600781526020017f233432323030360000000000000000000000000000000000000000000000000081525081526020016040518060400160405280600781526020017f2330333037313200000000000000000000000000000000000000000000000000815250815250905090565b61053b6109ec565b6040518060e001604052806040518060400160405280600781526020017f236462656166650000000000000000000000000000000000000000000000000081525081526020016040518060400160405280600781526020017f236633653866660000000000000000000000000000000000000000000000000081525081526020016040518060400160405280600781526020017f236663653766330000000000000000000000000000000000000000000000000081525081526020016040518060400160405280600781526020017f236666656464350000000000000000000000000000000000000000000000000081525081526020016040518060400160405280600781526020017f236463666365370000000000000000000000000000000000000000000000000081525081526020016040518060400160405280600781526020017f236665663963330000000000000000000000000000000000000000000000000081525081526020016040518060400160405280600781526020017f2366336634663600000000000000000000000000000000000000000000000000815250815250905090565b6106ee6109ec565b6040518060e001604052806040518060400160405280600781526020017f233362383266360000000000000000000000000000000000000000000000000081525081526020016040518060400160405280600781526020017f236138353566370000000000000000000000000000000000000000000000000081525081526020016040518060400160405280600781526020017f236563343839390000000000000000000000000000000000000000000000000081525081526020016040518060400160405280600781526020017f236639373331360000000000000000000000000000000000000000000000000081525081526020016040518060400160405280600781526020017f233232633535650000000000000000000000000000000000000000000000000081525081526020016040518060400160405280600781526020017f236561623330380000000000000000000000000000000000000000000000000081525081526020016040518060400160405280600781526020017f2336623732383000000000000000000000000000000000000000000000000000815250815250905090565b600080600090507a184f03e93ff9f4daa797ed6e38ed64bf6a1f01000000000000000083106108f7577a184f03e93ff9f4daa797ed6e38ed64bf6a1f01000000000000000083816108ed576108ec611815565b5b0492506040810190505b6d04ee2d6d415b85acef81000000008310610934576d04ee2d6d415b85acef8100000000838161092a57610929611815565b5b0492506020810190505b662386f26fc10000831061096357662386f26fc10000838161095957610958611815565b5b0492506010810190505b6305f5e100831061098c576305f5e100838161098257610981611815565b5b0492506008810190505b61271083106109b15761271083816109a7576109a6611815565b5b0492506004810190505b606483106109d457606483816109ca576109c9611815565b5b0492506002810190505b600a83106109e3576001810190505b80915050919050565b6040518060e001604052806007905b60608152602001906001900390816109fb5790505090565b6000604051905090565b600080fd5b600080fd5b600080fd5b600080fd5b6000601f19601f8301169050919050565b7f4e487b7100000000000000000000000000000000000000000000000000000000600052604160045260246000fd5b610a7a82610a31565b810181811067ffffffffffffffff82111715610a9957610a98610a42565b5b80604052505050565b6000610aac610a13565b9050610ab88282610a71565b919050565b600067ffffffffffffffff821115610ad857610ad7610a42565b5b610ae182610a31565b9050602081019050919050565b82818337600083830152505050565b6000610b10610b0b84610abd565b610aa2565b905082815260208101848484011115610b2c57610b2b610a2c565b5b610b37848285610aee565b509392505050565b600082601f830112610b5457610b53610a27565b5b8135610b64848260208601610afd565b91505092915050565b6000819050919050565b610b8081610b6d565b8114610b8b57600080fd5b50565b600081359050610b9d81610b77565b92915050565b600080600080600060a08688031215610bbf57610bbe610a1d565b5b600086013567ffffffffffffffff811115610bdd57610bdc610a22565b5b610be988828901610b3f565b955050602086013567ffffffffffffffff811115610c0a57610c09610a22565b5b610c1688828901610b3f565b945050604086013567ffffffffffffffff811115610c3757610c36610a22565b5b610c4388828901610b3f565b935050606086013567ffffffffffffffff811115610c6457610c63610a22565b5b610c7088828901610b3f565b9250506080610c8188828901610b8e565b9150509295509295909350565b600081519050919050565b600082825260208201905092915050565b60005b83811015610cc8578082015181840152602081019050610cad565b60008484015250505050565b6000610cdf82610c8e565b610ce98185610c99565b9350610cf9818560208601610caa565b610d0281610a31565b840191505092915050565b60006020820190508181036000830152610d278184610cd4565b905092915050565b610d3881610b6d565b82525050565b6000602082019050610d536000830184610d2f565b92915050565b600060208284031215610d6f57610d6e610a1d565b5b6000610d7d84828501610b8e565b91505092915050565b60006060820190508181036000830152610da08186610cd4565b90508181036020830152610db48185610cd4565b90508181036040830152610dc88184610cd4565b9050949350505050565b600081905092915050565b7f3c73766720786d6c6e733d22687474703a2f2f7777772e77332e6f72672f323060008201527f30302f737667222077696474683d2232303022206865696768743d223230302260208201527f3e00000000000000000000000000000000000000000000000000000000000000604082015250565b6000610e5f604183610dd2565b9150610e6a82610ddd565b604182019050919050565b7f3c7374796c653e40696d706f72742075726c282268747470733a2f2f666f6e7460008201527f732e676f6f676c65617069732e636f6d2f637373323f66616d696c793d47656f60208201527f6c6f676963613a77676874403130302e2e39303022293b202e67656f2d666f6e60408201527f74207b20666f6e742d66616d696c793a202247656f6c6f67696361222c20736160608201527f6e732d73657269663b20666f6e742d7765696768743a20626f6c643b207d3c2f60808201527f7374796c653e000000000000000000000000000000000000000000000000000060a082015250565b6000610f6960a683610dd2565b9150610f7482610e75565b60a682019050919050565b7f3c7265637420783d22302220793d2230222077696474683d223230302220686560008201527f696768743d22323030222072783d223135222072793d223135222066696c6c3d60208201527f2200000000000000000000000000000000000000000000000000000000000000604082015250565b6000611001604183610dd2565b915061100c82610f7f565b604182019050919050565b600061102282610c8e565b61102c8185610dd2565b935061103c818560208601610caa565b80840191505092915050565b7f222f3e0000000000000000000000000000000000000000000000000000000000600082015250565b600061107e600383610dd2565b915061108982611048565b600382019050919050565b7f3c7265637420783d22352220793d2230222077696474683d223139352220686560008201527f696768743d22313935222072783d223130222072793d223130222066696c6c3d60208201527f2200000000000000000000000000000000000000000000000000000000000000604082015250565b6000611116604183610dd2565b915061112182611094565b604182019050919050565b600061113782610e52565b915061114282610f5c565b915061114d82610ff4565b91506111598285611017565b915061116482611071565b915061116f82611109565b915061117b8284611017565b915061118682611071565b91508190509392505050565b7f3c7465787420783d223933252220793d223133252220746578742d616e63686f60008201527f723d22656e64222066696c6c3d22000000000000000000000000000000000000602082015250565b60006111ee602e83610dd2565b91506111f982611192565b602e82019050919050565b7f2220666f6e742d73697a653d2232302220666f6e742d7765696768743d22626f60008201527f6c642220666f6e742d66616d696c793d2247656f6c6f676963612220636c617360208201527f733d2267656f2d666f6e74223e00000000000000000000000000000000000000604082015250565b6000611286604d83610dd2565b915061129182611204565b604d82019050919050565b7f3c2f746578743e00000000000000000000000000000000000000000000000000600082015250565b60006112d2600783610dd2565b91506112dd8261129c565b600782019050919050565b7f3c2f7376673e0000000000000000000000000000000000000000000000000000600082015250565b600061131e600683610dd2565b9150611329826112e8565b600682019050919050565b600061133f826111e1565b915061134b8285611017565b915061135682611279565b91506113628284611017565b915061136d826112c5565b915061137882611311565b91508190509392505050565b7f3c7465787420783d223530252220793d223530252220746578742d616e63686f60008201527f723d226d6964646c65222066696c6c3d22000000000000000000000000000000602082015250565b60006113e0603183610dd2565b91506113eb82611384565b603182019050919050565b7f222064793d222e33656d2220666f6e742d73697a653d2239362220666f6e742d60008201527f7765696768743d22626f6c642220666f6e742d66616d696c793d2247656f6c6f60208201527f676963612220636c6173733d2267656f2d666f6e74223e000000000000000000604082015250565b6000611478605783610dd2565b9150611483826113f6565b605782019050919050565b7f3c616e696d617465206174747269627574654e616d653d2266696c6c2220766160008201527f6c7565733d220000000000000000000000000000000000000000000000000000602082015250565b60006114ea602683610dd2565b91506114f58261148e565b602682019050919050565b7f3b00000000000000000000000000000000000000000000000000000000000000600082015250565b6000611536600183610dd2565b915061154182611500565b600182019050919050565b7f22206475723d2232732220726570656174436f756e743d22696e646566696e6960008201527f74652220202f3e00000000000000000000000000000000000000000000000000602082015250565b60006115a8602783610dd2565b91506115b38261154c565b602782019050919050565b7f3c616e696d617465206174747269627574654e616d653d22666f6e742d73697a60008201527f65222076616c7565733d22000000000000000000000000000000000000000000602082015250565b600061161a602b83610dd2565b9150611625826115be565b602b82019050919050565b7f3b393670783b0000000000000000000000000000000000000000000000000000600082015250565b6000611666600683610dd2565b915061167182611630565b600682019050919050565b6000611688828c611017565b9150611693826113d3565b915061169f828b611017565b91506116aa8261146b565b91506116b5826114dd565b91506116c1828a611017565b91506116cc82611529565b91506116d88289611017565b91506116e382611529565b91506116ef8288611017565b91506116fa8261159b565b91506117058261160d565b91506117118287611017565b915061171c82611659565b91506117288286611017565b91506117338261159b565b915061173f8285611017565b915061174a826112c5565b91506117568284611017565b91508190509a9950505050505050505050565b600082825260208201905092915050565b7f496e646578206f7574206f6620626f756e647300000000000000000000000000600082015250565b60006117b0601383611769565b91506117bb8261177a565b602082019050919050565b600060208201905081810360008301526117df816117a3565b9050919050565b7f4e487b7100000000000000000000000000000000000000000000000000000000600052603260045260246000fd5b7f4e487b7100000000000000000000000000000000000000000000000000000000600052601260045260246000fdfea26469706673582212203c5b314b9b57a770a2761f93fa4455047c54f82f84a3adb5855747805ed3f93c64736f6c63430008130033",
  "devdoc": {
    "kind": "dev",
    "methods": {},
    "version": 1
  },
  "userdoc": {
    "kind": "user",
    "methods": {},
    "version": 1
  },
  "storageLayout": {
    "storage": [],
    "types": null
  }
}