{
  "address": "0x5aC802077046eB1C92d754f0b02B25986d0a0424",
  "abi": [
    {
      "inputs": [
        {
          "internalType": "uint256",
          "name": "subscriptionId",
          "type": "uint256"
        },
        {
          "internalType": "address",
          "name": "_colors",
          "type": "address"
        }
      ],
      "stateMutability": "nonpayable",
      "type": "constructor"
    },
    {
      "inputs": [
        {
          "internalType": "address",
          "name": "have",
          "type": "address"
        },
        {
          "internalType": "address",
          "name": "want",
          "type": "address"
        }
      ],
      "name": "OnlyCoordinatorCanFulfill",
      "type": "error"
    },
    {
      "inputs": [
        {
          "internalType": "address",
          "name": "have",
          "type": "address"
        },
        {
          "internalType": "address",
          "name": "owner",
          "type": "address"
        },
        {
          "internalType": "address",
          "name": "coordinator",
          "type": "address"
        }
      ],
      "name": "OnlyOwnerOrCoordinator",
      "type": "error"
    },
    {
      "inputs": [],
      "name": "ZeroAddress",
      "type": "error"
    },
    {
      "anonymous": false,
      "inputs": [
        {
          "indexed": true,
          "internalType": "address",
          "name": "owner",
          "type": "address"
        },
        {
          "indexed": true,
          "internalType": "address",
          "name": "approved",
          "type": "address"
        },
        {
          "indexed": true,
          "internalType": "uint256",
          "name": "tokenId",
          "type": "uint256"
        }
      ],
      "name": "Approval",
      "type": "event"
    },
    {
      "anonymous": false,
      "inputs": [
        {
          "indexed": true,
          "internalType": "address",
          "name": "owner",
          "type": "address"
        },
        {
          "indexed": true,
          "internalType": "address",
          "name": "operator",
          "type": "address"
        },
        {
          "indexed": false,
          "internalType": "bool",
          "name": "approved",
          "type": "bool"
        }
      ],
      "name": "ApprovalForAll",
      "type": "event"
    },
    {
      "anonymous": false,
      "inputs": [
        {
          "indexed": false,
          "internalType": "uint256",
          "name": "_fromTokenId",
          "type": "uint256"
        },
        {
          "indexed": false,
          "internalType": "uint256",
          "name": "_toTokenId",
          "type": "uint256"
        }
      ],
      "name": "BatchMetadataUpdate",
      "type": "event"
    },
    {
      "anonymous": false,
      "inputs": [
        {
          "indexed": false,
          "internalType": "address",
          "name": "vrfCoordinator",
          "type": "address"
        }
      ],
      "name": "CoordinatorSet",
      "type": "event"
    },
    {
      "anonymous": false,
      "inputs": [
        {
          "indexed": false,
          "internalType": "uint256",
          "name": "_tokenId",
          "type": "uint256"
        }
      ],
      "name": "MetadataUpdate",
      "type": "event"
    },
    {
      "anonymous": false,
      "inputs": [
        {
          "indexed": true,
          "internalType": "address",
          "name": "minter",
          "type": "address"
        },
        {
          "indexed": false,
          "internalType": "uint256",
          "name": "amount",
          "type": "uint256"
        },
        {
          "indexed": false,
          "internalType": "uint256[]",
          "name": "tokenIds",
          "type": "uint256[]"
        }
      ],
      "name": "NFTsMinted",
      "type": "event"
    },
    {
      "anonymous": false,
      "inputs": [
        {
          "indexed": true,
          "internalType": "address",
          "name": "from",
          "type": "address"
        },
        {
          "indexed": true,
          "internalType": "address",
          "name": "to",
          "type": "address"
        }
      ],
      "name": "OwnershipTransferRequested",
      "type": "event"
    },
    {
      "anonymous": false,
      "inputs": [
        {
          "indexed": true,
          "internalType": "address",
          "name": "from",
          "type": "address"
        },
        {
          "indexed": true,
          "internalType": "address",
          "name": "to",
          "type": "address"
        }
      ],
      "name": "OwnershipTransferred",
      "type": "event"
    },
    {
      "anonymous": false,
      "inputs": [
        {
          "indexed": true,
          "internalType": "uint256",
          "name": "requestId",
          "type": "uint256"
        },
        {
          "indexed": true,
          "internalType": "uint256",
          "name": "tokenId",
          "type": "uint256"
        },
        {
          "indexed": false,
          "internalType": "uint256",
          "name": "randomWord",
          "type": "uint256"
        }
      ],
      "name": "ReceivedRandomness",
      "type": "event"
    },
    {
      "anonymous": false,
      "inputs": [
        {
          "indexed": true,
          "internalType": "uint256",
          "name": "requestId",
          "type": "uint256"
        },
        {
          "indexed": true,
          "internalType": "uint256",
          "name": "tokenId",
          "type": "uint256"
        }
      ],
      "name": "RequestedRandomness",
      "type": "event"
    },
    {
      "anonymous": false,
      "inputs": [
        {
          "indexed": true,
          "internalType": "address",
          "name": "from",
          "type": "address"
        },
        {
          "indexed": true,
          "internalType": "address",
          "name": "to",
          "type": "address"
        },
        {
          "indexed": true,
          "internalType": "uint256",
          "name": "tokenId",
          "type": "uint256"
        }
      ],
      "name": "Transfer",
      "type": "event"
    },
    {
      "inputs": [
        {
          "internalType": "uint256",
          "name": "tokenId",
          "type": "uint256"
        }
      ],
      "name": "_getColorName",
      "outputs": [
        {
          "internalType": "string",
          "name": "",
          "type": "string"
        }
      ],
      "stateMutability": "view",
      "type": "function"
    },
    {
      "inputs": [
        {
          "internalType": "uint256",
          "name": "tokenId",
          "type": "uint256"
        }
      ],
      "name": "_getPoints",
      "outputs": [
        {
          "internalType": "uint256",
          "name": "",
          "type": "uint256"
        }
      ],
      "stateMutability": "view",
      "type": "function"
    },
    {
      "inputs": [],
      "name": "acceptOwnership",
      "outputs": [],
      "stateMutability": "nonpayable",
      "type": "function"
    },
    {
      "inputs": [
        {
          "internalType": "address",
          "name": "to",
          "type": "address"
        },
        {
          "internalType": "uint256",
          "name": "tokenId",
          "type": "uint256"
        }
      ],
      "name": "approve",
      "outputs": [],
      "stateMutability": "nonpayable",
      "type": "function"
    },
    {
      "inputs": [
        {
          "internalType": "address",
          "name": "owner",
          "type": "address"
        }
      ],
      "name": "balanceOf",
      "outputs": [
        {
          "internalType": "uint256",
          "name": "",
          "type": "uint256"
        }
      ],
      "stateMutability": "view",
      "type": "function"
    },
    {
      "inputs": [],
      "name": "colors",
      "outputs": [
        {
          "internalType": "contract ILibraryColors",
          "name": "",
          "type": "address"
        }
      ],
      "stateMutability": "view",
      "type": "function"
    },
    {
      "inputs": [
        {
          "internalType": "uint256",
          "name": "tokenId",
          "type": "uint256"
        }
      ],
      "name": "getApproved",
      "outputs": [
        {
          "internalType": "address",
          "name": "",
          "type": "address"
        }
      ],
      "stateMutability": "view",
      "type": "function"
    },
    {
      "inputs": [
        {
          "internalType": "address",
          "name": "owner",
          "type": "address"
        },
        {
          "internalType": "address",
          "name": "operator",
          "type": "address"
        }
      ],
      "name": "isApprovedForAll",
      "outputs": [
        {
          "internalType": "bool",
          "name": "",
          "type": "bool"
        }
      ],
      "stateMutability": "view",
      "type": "function"
    },
    {
      "inputs": [],
      "name": "mintNFT",
      "outputs": [],
      "stateMutability": "payable",
      "type": "function"
    },
    {
      "inputs": [
        {
          "internalType": "uint256",
          "name": "amount",
          "type": "uint256"
        }
      ],
      "name": "mintNFTs",
      "outputs": [],
      "stateMutability": "payable",
      "type": "function"
    },
    {
      "inputs": [],
      "name": "name",
      "outputs": [
        {
          "internalType": "string",
          "name": "",
          "type": "string"
        }
      ],
      "stateMutability": "view",
      "type": "function"
    },
    {
      "inputs": [],
      "name": "owner",
      "outputs": [
        {
          "internalType": "address",
          "name": "",
          "type": "address"
        }
      ],
      "stateMutability": "view",
      "type": "function"
    },
    {
      "inputs": [
        {
          "internalType": "uint256",
          "name": "tokenId",
          "type": "uint256"
        }
      ],
      "name": "ownerOf",
      "outputs": [
        {
          "internalType": "address",
          "name": "",
          "type": "address"
        }
      ],
      "stateMutability": "view",
      "type": "function"
    },
    {
      "inputs": [
        {
          "internalType": "uint256",
          "name": "requestId",
          "type": "uint256"
        },
        {
          "internalType": "uint256[]",
          "name": "randomWords",
          "type": "uint256[]"
        }
      ],
      "name": "rawFulfillRandomWords",
      "outputs": [],
      "stateMutability": "nonpayable",
      "type": "function"
    },
    {
      "inputs": [],
      "name": "s_vrfCoordinator",
      "outputs": [
        {
          "internalType": "contract IVRFCoordinatorV2Plus",
          "name": "",
          "type": "address"
        }
      ],
      "stateMutability": "view",
      "type": "function"
    },
    {
      "inputs": [
        {
          "internalType": "address",
          "name": "from",
          "type": "address"
        },
        {
          "internalType": "address",
          "name": "to",
          "type": "address"
        },
        {
          "internalType": "uint256",
          "name": "tokenId",
          "type": "uint256"
        }
      ],
      "name": "safeTransferFrom",
      "outputs": [],
      "stateMutability": "nonpayable",
      "type": "function"
    },
    {
      "inputs": [
        {
          "internalType": "address",
          "name": "from",
          "type": "address"
        },
        {
          "internalType": "address",
          "name": "to",
          "type": "address"
        },
        {
          "internalType": "uint256",
          "name": "tokenId",
          "type": "uint256"
        },
        {
          "internalType": "bytes",
          "name": "data",
          "type": "bytes"
        }
      ],
      "name": "safeTransferFrom",
      "outputs": [],
      "stateMutability": "nonpayable",
      "type": "function"
    },
    {
      "inputs": [
        {
          "internalType": "address",
          "name": "operator",
          "type": "address"
        },
        {
          "internalType": "bool",
          "name": "approved",
          "type": "bool"
        }
      ],
      "name": "setApprovalForAll",
      "outputs": [],
      "stateMutability": "nonpayable",
      "type": "function"
    },
    {
      "inputs": [
        {
          "internalType": "address",
          "name": "_vrfCoordinator",
          "type": "address"
        }
      ],
      "name": "setCoordinator",
      "outputs": [],
      "stateMutability": "nonpayable",
      "type": "function"
    },
    {
      "inputs": [
        {
          "internalType": "bytes4",
          "name": "interfaceId",
          "type": "bytes4"
        }
      ],
      "name": "supportsInterface",
      "outputs": [
        {
          "internalType": "bool",
          "name": "",
          "type": "bool"
        }
      ],
      "stateMutability": "view",
      "type": "function"
    },
    {
      "inputs": [],
      "name": "symbol",
      "outputs": [
        {
          "internalType": "string",
          "name": "",
          "type": "string"
        }
      ],
      "stateMutability": "view",
      "type": "function"
    },
    {
      "inputs": [
        {
          "internalType": "uint256",
          "name": "index",
          "type": "uint256"
        }
      ],
      "name": "tokenByIndex",
      "outputs": [
        {
          "internalType": "uint256",
          "name": "",
          "type": "uint256"
        }
      ],
      "stateMutability": "view",
      "type": "function"
    },
    {
      "inputs": [
        {
          "internalType": "address",
          "name": "owner",
          "type": "address"
        },
        {
          "internalType": "uint256",
          "name": "index",
          "type": "uint256"
        }
      ],
      "name": "tokenOfOwnerByIndex",
      "outputs": [
        {
          "internalType": "uint256",
          "name": "",
          "type": "uint256"
        }
      ],
      "stateMutability": "view",
      "type": "function"
    },
    {
      "inputs": [
        {
          "internalType": "uint256",
          "name": "tokenId",
          "type": "uint256"
        }
      ],
      "name": "tokenURI",
      "outputs": [
        {
          "internalType": "string",
          "name": "",
          "type": "string"
        }
      ],
      "stateMutability": "view",
      "type": "function"
    },
    {
      "inputs": [],
      "name": "totalSupply",
      "outputs": [
        {
          "internalType": "uint256",
          "name": "",
          "type": "uint256"
        }
      ],
      "stateMutability": "view",
      "type": "function"
    },
    {
      "inputs": [
        {
          "internalType": "address",
          "name": "from",
          "type": "address"
        },
        {
          "internalType": "address",
          "name": "to",
          "type": "address"
        },
        {
          "internalType": "uint256",
          "name": "tokenId",
          "type": "uint256"
        }
      ],
      "name": "transferFrom",
      "outputs": [],
      "stateMutability": "nonpayable",
      "type": "function"
    },
    {
      "inputs": [
        {
          "internalType": "address",
          "name": "to",
          "type": "address"
        }
      ],
      "name": "transferOwnership",
      "outputs": [],
      "stateMutability": "nonpayable",
      "type": "function"
    }
  ],
  "transactionHash": "0x8194ac3ca512cca4549b012c786e2bfd8ed8e2780d48c218d0bba0252da3691e",
  "args": [
    "63339909148955487393229205506298531731913104576314227659860317574871770575403",
    "0x4e7dD148A6E5039225B9637fb132Ff356FF83D37"
  ],
  "numDeployments": 15,
  "solcInputHash": "eb3e63d7dbf077683bc09f81823c6ea9",
  "bytecode": "0x60a0604052735c210ef41cd1a72de73bf76ec39637bb0d3d7bee73ffffffffffffffffffffffffffffffffffffffff1660809073ffffffffffffffffffffffffffffffffffffffff168152503480156200005857600080fd5b50604051620069ed380380620069ed83398181016040528101906200007e919062000591565b608051338060006040518060400160405280600881526020017f576f72647346756e0000000000000000000000000000000000000000000000008152506040518060400160405280600381526020017f46554e0000000000000000000000000000000000000000000000000000000000815250816000908162000102919062000848565b50806001908162000114919062000848565b505050600073ffffffffffffffffffffffffffffffffffffffff168273ffffffffffffffffffffffffffffffffffffffff160362000189576040517f08c379a0000000000000000000000000000000000000000000000000000000008152600401620001809062000990565b60405180910390fd5b81600b60006101000a81548173ffffffffffffffffffffffffffffffffffffffff021916908373ffffffffffffffffffffffffffffffffffffffff160217905550600073ffffffffffffffffffffffffffffffffffffffff168173ffffffffffffffffffffffffffffffffffffffff161462000211576200021081620003bb60201b60201c565b5b505050600073ffffffffffffffffffffffffffffffffffffffff168173ffffffffffffffffffffffffffffffffffffffff16036200027b576040517fd92e233d00000000000000000000000000000000000000000000000000000000815260040160405180910390fd5b80600d60006101000a81548173ffffffffffffffffffffffffffffffffffffffff021916908373ffffffffffffffffffffffffffffffffffffffff1602179055505060405180608001604052808381526020017f9e1344a1247c8a1785d0a4681a27152bffdb43666ae5bf7d14d24a5efd44bf7160001b8152602001622625a063ffffffff168152602001600361ffff168152506010600082015181600001556020820151816001015560408201518160020160006101000a81548163ffffffff021916908363ffffffff16021790555060608201518160020160046101000a81548161ffff021916908361ffff16021790555090505080600f60006101000a81548173ffffffffffffffffffffffffffffffffffffffff021916908373ffffffffffffffffffffffffffffffffffffffff160217905550505062000a24565b3373ffffffffffffffffffffffffffffffffffffffff168173ffffffffffffffffffffffffffffffffffffffff16036200042c576040517f08c379a0000000000000000000000000000000000000000000000000000000008152600401620004239062000a02565b60405180910390fd5b80600c60006101000a81548173ffffffffffffffffffffffffffffffffffffffff021916908373ffffffffffffffffffffffffffffffffffffffff1602179055508073ffffffffffffffffffffffffffffffffffffffff16600b60009054906101000a900473ffffffffffffffffffffffffffffffffffffffff1673ffffffffffffffffffffffffffffffffffffffff167fed8889f560326eb138920d842192f0eb3dd22b4f139c87a2c57538e05bae127860405160405180910390a350565b600080fd5b6000819050919050565b6200050681620004f1565b81146200051257600080fd5b50565b6000815190506200052681620004fb565b92915050565b600073ffffffffffffffffffffffffffffffffffffffff82169050919050565b600062000559826200052c565b9050919050565b6200056b816200054c565b81146200057757600080fd5b50565b6000815190506200058b8162000560565b92915050565b60008060408385031215620005ab57620005aa620004ec565b5b6000620005bb8582860162000515565b9250506020620005ce858286016200057a565b9150509250929050565b600081519050919050565b7f4e487b7100000000000000000000000000000000000000000000000000000000600052604160045260246000fd5b7f4e487b7100000000000000000000000000000000000000000000000000000000600052602260045260246000fd5b600060028204905060018216806200065a57607f821691505b60208210810362000670576200066f62000612565b5b50919050565b60008190508160005260206000209050919050565b60006020601f8301049050919050565b600082821b905092915050565b600060088302620006da7fffffffffffffffffffffffffffffffffffffffffffffffffffffffffffffffff826200069b565b620006e686836200069b565b95508019841693508086168417925050509392505050565b6000819050919050565b600062000729620007236200071d84620004f1565b620006fe565b620004f1565b9050919050565b6000819050919050565b620007458362000708565b6200075d620007548262000730565b848454620006a8565b825550505050565b600090565b6200077462000765565b620007818184846200073a565b505050565b5b81811015620007a9576200079d6000826200076a565b60018101905062000787565b5050565b601f821115620007f857620007c28162000676565b620007cd846200068b565b81016020851015620007dd578190505b620007f5620007ec856200068b565b83018262000786565b50505b505050565b600082821c905092915050565b60006200081d60001984600802620007fd565b1980831691505092915050565b60006200083883836200080a565b9150826002028217905092915050565b6200085382620005d8565b67ffffffffffffffff8111156200086f576200086e620005e3565b5b6200087b825462000641565b62000888828285620007ad565b600060209050601f831160018114620008c05760008415620008ab578287015190505b620008b785826200082a565b86555062000927565b601f198416620008d08662000676565b60005b82811015620008fa57848901518255600182019150602085019450602081019050620008d3565b868310156200091a578489015162000916601f8916826200080a565b8355505b6001600288020188555050505b505050505050565b600082825260208201905092915050565b7f43616e6e6f7420736574206f776e657220746f207a65726f0000000000000000600082015250565b6000620009786018836200092f565b9150620009858262000940565b602082019050919050565b60006020820190508181036000830152620009ab8162000969565b9050919050565b7f43616e6e6f74207472616e7366657220746f2073656c66000000000000000000600082015250565b6000620009ea6017836200092f565b9150620009f782620009b2565b602082019050919050565b6000602082019050818103600083015262000a1d81620009db565b9050919050565b608051615fb062000a3d60003960005050615fb06000f3fe60806040526004361061019c5760003560e01c806370a08231116100ec578063a22cb4651161008a578063ca77a4c011610064578063ca77a4c0146105bc578063e985e9c5146105f9578063f2fde38b14610636578063f8e580241461065f5761019c565b8063a22cb4651461052d578063b88d4fde14610556578063c87b56dd1461057f5761019c565b80638da5cb5b116100c65780638da5cb5b146104835780638ea98117146104ae57806395d89b41146104d75780639eccacf6146105025761019c565b806370a08231146103f257806379ba50971461042f5780637f44fcfa146104465761019c565b80631fe543e3116101595780633b4b1381116101335780633b4b13811461033357806342842e0e1461034f5780634f6ccce7146103785780636352211e146103b55761019c565b80631fe543e3146102a457806323b872dd146102cd5780632f745c59146102f65761019c565b806301ffc9a7146101a157806306fdde03146101de578063081812fc14610209578063095ea7b31461024657806314f710fe1461026f57806318160ddd14610279575b600080fd5b3480156101ad57600080fd5b506101c860048036038101906101c39190613d1b565b61068a565b6040516101d59190613d63565b60405180910390f35b3480156101ea57600080fd5b506101f361069c565b6040516102009190613e0e565b60405180910390f35b34801561021557600080fd5b50610230600480360381019061022b9190613e66565b61072e565b60405161023d9190613ed4565b60405180910390f35b34801561025257600080fd5b5061026d60048036038101906102689190613f1b565b610774565b005b61027761088b565b005b34801561028557600080fd5b5061028e610897565b60405161029b9190613f6a565b60405180910390f35b3480156102b057600080fd5b506102cb60048036038101906102c69190613fea565b6108a4565b005b3480156102d957600080fd5b506102f460048036038101906102ef919061404a565b61096a565b005b34801561030257600080fd5b5061031d60048036038101906103189190613f1b565b6109ca565b60405161032a9190613f6a565b60405180910390f35b61034d60048036038101906103489190613e66565b610a6f565b005b34801561035b57600080fd5b506103766004803603810190610371919061404a565b610a7b565b005b34801561038457600080fd5b5061039f600480360381019061039a9190613e66565b610a9b565b6040516103ac9190613f6a565b60405180910390f35b3480156103c157600080fd5b506103dc60048036038101906103d79190613e66565b610b0c565b6040516103e99190613ed4565b60405180910390f35b3480156103fe57600080fd5b506104196004803603810190610414919061409d565b610b92565b6040516104269190613f6a565b60405180910390f35b34801561043b57600080fd5b50610444610c49565b005b34801561045257600080fd5b5061046d60048036038101906104689190613e66565b610de0565b60405161047a9190613f6a565b60405180910390f35b34801561048f57600080fd5b50610498610e88565b6040516104a59190613ed4565b60405180910390f35b3480156104ba57600080fd5b506104d560048036038101906104d0919061409d565b610eb2565b005b3480156104e357600080fd5b506104ec611093565b6040516104f99190613e0e565b60405180910390f35b34801561050e57600080fd5b50610517611125565b6040516105249190614129565b60405180910390f35b34801561053957600080fd5b50610554600480360381019061054f9190614170565b61114b565b005b34801561056257600080fd5b5061057d600480360381019061057891906142e0565b611161565b005b34801561058b57600080fd5b506105a660048036038101906105a19190613e66565b6111c3565b6040516105b39190613e0e565b60405180910390f35b3480156105c857600080fd5b506105e360048036038101906105de9190613e66565b6111d5565b6040516105f09190613e0e565b60405180910390f35b34801561060557600080fd5b50610620600480360381019061061b9190614363565b6113b3565b60405161062d9190613d63565b60405180910390f35b34801561064257600080fd5b5061065d6004803603810190610658919061409d565b611447565b005b34801561066b57600080fd5b5061067461145b565b60405161068191906143c4565b60405180910390f35b600061069582611481565b9050919050565b6060600080546106ab9061440e565b80601f01602080910402602001604051908101604052809291908181526020018280546106d79061440e565b80156107245780601f106106f957610100808354040283529160200191610724565b820191906000526020600020905b81548152906001019060200180831161070757829003601f168201915b5050505050905090565b6000610739826114e2565b6004600083815260200190815260200160002060009054906101000a900473ffffffffffffffffffffffffffffffffffffffff169050919050565b600061077f82610b0c565b90508073ffffffffffffffffffffffffffffffffffffffff168373ffffffffffffffffffffffffffffffffffffffff16036107ef576040517f08c379a00000000000000000000000000000000000000000000000000000000081526004016107e6906144b1565b60405180910390fd5b8073ffffffffffffffffffffffffffffffffffffffff1661080e61152d565b73ffffffffffffffffffffffffffffffffffffffff16148061083d575061083c8161083761152d565b6113b3565b5b61087c576040517f08c379a000000000000000000000000000000000000000000000000000000000815260040161087390614543565b60405180910390fd5b6108868383611535565b505050565b61089560016115ee565b565b6000600880549050905090565b600d60009054906101000a900473ffffffffffffffffffffffffffffffffffffffff1673ffffffffffffffffffffffffffffffffffffffff163373ffffffffffffffffffffffffffffffffffffffff161461095a5733600d60009054906101000a900473ffffffffffffffffffffffffffffffffffffffff166040517f1cf993f4000000000000000000000000000000000000000000000000000000008152600401610951929190614563565b60405180910390fd5b6109658383836118e1565b505050565b61097b61097561152d565b82611aa6565b6109ba576040517f08c379a00000000000000000000000000000000000000000000000000000000081526004016109b1906145fe565b60405180910390fd5b6109c5838383611b3b565b505050565b60006109d583610b92565b8210610a16576040517f08c379a0000000000000000000000000000000000000000000000000000000008152600401610a0d90614690565b60405180910390fd5b600660008473ffffffffffffffffffffffffffffffffffffffff1673ffffffffffffffffffffffffffffffffffffffff168152602001908152602001600020600083815260200190815260200160002054905092915050565b610a78816115ee565b50565b610a9683838360405180602001604052806000815250611161565b505050565b6000610aa5610897565b8210610ae6576040517f08c379a0000000000000000000000000000000000000000000000000000000008152600401610add90614722565b60405180910390fd5b60088281548110610afa57610af9614742565b5b90600052602060002001549050919050565b600080610b1883611e34565b9050600073ffffffffffffffffffffffffffffffffffffffff168173ffffffffffffffffffffffffffffffffffffffff1603610b89576040517f08c379a0000000000000000000000000000000000000000000000000000000008152600401610b80906147bd565b60405180910390fd5b80915050919050565b60008073ffffffffffffffffffffffffffffffffffffffff168273ffffffffffffffffffffffffffffffffffffffff1603610c02576040517f08c379a0000000000000000000000000000000000000000000000000000000008152600401610bf99061484f565b60405180910390fd5b600360008373ffffffffffffffffffffffffffffffffffffffff1673ffffffffffffffffffffffffffffffffffffffff168152602001908152602001600020549050919050565b600c60009054906101000a900473ffffffffffffffffffffffffffffffffffffffff1673ffffffffffffffffffffffffffffffffffffffff163373ffffffffffffffffffffffffffffffffffffffff1614610cd9576040517f08c379a0000000000000000000000000000000000000000000000000000000008152600401610cd0906148bb565b60405180910390fd5b6000600b60009054906101000a900473ffffffffffffffffffffffffffffffffffffffff16905033600b60006101000a81548173ffffffffffffffffffffffffffffffffffffffff021916908373ffffffffffffffffffffffffffffffffffffffff1602179055506000600c60006101000a81548173ffffffffffffffffffffffffffffffffffffffff021916908373ffffffffffffffffffffffffffffffffffffffff1602179055503373ffffffffffffffffffffffffffffffffffffffff168173ffffffffffffffffffffffffffffffffffffffff167f8be0079c531659141344cd1fd0a4f28419497f9722a3daafe3b4186f6b6457e060405160405180910390a350565b6000610deb82611e71565b610e2a576040517f08c379a0000000000000000000000000000000000000000000000000000000008152600401610e2190614927565b60405180910390fd5b6000610e3583611eb2565b90506000610e4284611fe3565b90506000610e6d83600081518110610e5d57610e5c614742565b5b602001015160f81c60f81b612093565b60ff1690508181610e7e9190614976565b9350505050919050565b6000600b60009054906101000a900473ffffffffffffffffffffffffffffffffffffffff16905090565b610eba610e88565b73ffffffffffffffffffffffffffffffffffffffff163373ffffffffffffffffffffffffffffffffffffffff1614158015610f435750600d60009054906101000a900473ffffffffffffffffffffffffffffffffffffffff1673ffffffffffffffffffffffffffffffffffffffff163373ffffffffffffffffffffffffffffffffffffffff1614155b15610fb25733610f51610e88565b600d60009054906101000a900473ffffffffffffffffffffffffffffffffffffffff166040517f061db9c1000000000000000000000000000000000000000000000000000000008152600401610fa9939291906149b8565b60405180910390fd5b600073ffffffffffffffffffffffffffffffffffffffff168173ffffffffffffffffffffffffffffffffffffffff1603611018576040517fd92e233d00000000000000000000000000000000000000000000000000000000815260040160405180910390fd5b80600d60006101000a81548173ffffffffffffffffffffffffffffffffffffffff021916908373ffffffffffffffffffffffffffffffffffffffff1602179055507fd1a6a14209a385a964d036e404cb5cfb71f4000cdb03c9366292430787261be6816040516110889190613ed4565b60405180910390a150565b6060600180546110a29061440e565b80601f01602080910402602001604051908101604052809291908181526020018280546110ce9061440e565b801561111b5780601f106110f05761010080835404028352916020019161111b565b820191906000526020600020905b8154815290600101906020018083116110fe57829003601f168201915b5050505050905090565b600d60009054906101000a900473ffffffffffffffffffffffffffffffffffffffff1681565b61115d61115661152d565b83836120a5565b5050565b61117261116c61152d565b83611aa6565b6111b1576040517f08c379a00000000000000000000000000000000000000000000000000000000081526004016111a8906145fe565b60405180910390fd5b6111bd84848484612211565b50505050565b60606111ce8261226d565b9050919050565b60606111e082611e71565b61121f576040517f08c379a000000000000000000000000000000000000000000000000000000000815260040161121690614927565b60405180910390fd5b60004483604051602001611234929190614a10565b6040516020818303038152906040528051906020012090506000600f60009054906101000a900473ffffffffffffffffffffffffffffffffffffffff1673ffffffffffffffffffffffffffffffffffffffff1663934434116040518163ffffffff1660e01b8152600401602060405180830381865afa1580156112bb573d6000803e3d6000fd5b505050506040513d601f19601f820116820180604052508101906112df9190614a51565b826002602081106112f3576112f2614742565b5b1a60f81b60f81c60ff166113079190614aad565b9050600f60009054906101000a900473ffffffffffffffffffffffffffffffffffffffff1673ffffffffffffffffffffffffffffffffffffffff16630d56fe87826040518263ffffffff1660e01b81526004016113649190613f6a565b600060405180830381865afa158015611381573d6000803e3d6000fd5b505050506040513d6000823e3d601f19601f820116820180604052508101906113aa9190614b7f565b92505050919050565b6000600560008473ffffffffffffffffffffffffffffffffffffffff1673ffffffffffffffffffffffffffffffffffffffff16815260200190815260200160002060008373ffffffffffffffffffffffffffffffffffffffff1673ffffffffffffffffffffffffffffffffffffffff16815260200190815260200160002060009054906101000a900460ff16905092915050565b61144f61237f565b61145881612411565b50565b600f60009054906101000a900473ffffffffffffffffffffffffffffffffffffffff1681565b6000634906490660e01b7bffffffffffffffffffffffffffffffffffffffffffffffffffffffff1916827bffffffffffffffffffffffffffffffffffffffffffffffffffffffff191614806114db57506114da8261253f565b5b9050919050565b6114eb81611e71565b61152a576040517f08c379a0000000000000000000000000000000000000000000000000000000008152600401611521906147bd565b60405180910390fd5b50565b600033905090565b816004600083815260200190815260200160002060006101000a81548173ffffffffffffffffffffffffffffffffffffffff021916908373ffffffffffffffffffffffffffffffffffffffff160217905550808273ffffffffffffffffffffffffffffffffffffffff166115a883610b0c565b73ffffffffffffffffffffffffffffffffffffffff167f8c5be1e5ebec7d5bd14f71427d1e84f3dd0314c0f7b2291e5b200ac8c7c3b92560405160405180910390a45050565b8066038d7ea4c680006116019190614976565b341015611643576040517f08c379a000000000000000000000000000000000000000000000000000000000815260040161163a90614c14565b60405180910390fd5b60008167ffffffffffffffff81111561165f5761165e6141b5565b5b60405190808252806020026020018201604052801561168d5781602001602082028036833780820191505090505b50905060005b828110156116f1576116a5600e6125b9565b60006116b1600e6125cf565b90506116bd33826125dd565b808383815181106116d1576116d0614742565b5b6020026020010181815250505080806116e990614c34565b915050611693565b506000600d60009054906101000a900473ffffffffffffffffffffffffffffffffffffffff1673ffffffffffffffffffffffffffffffffffffffff16639b1c385e6040518060c0016040528060106001015481526020016010600001548152602001601060020160049054906101000a900461ffff1661ffff168152602001601060020160009054906101000a900463ffffffff1663ffffffff1681526020018663ffffffff1681526020016117b76040518060200160405280600015158152506125fb565b8152506040518263ffffffff1660e01b81526004016117d69190614dbe565b6020604051808303816000875af11580156117f5573d6000803e3d6000fd5b505050506040513d601f19601f820116820180604052508101906118199190614a51565b905081601560008381526020019081526020016000209080519060200190611842929190613c45565b508160008151811061185757611856614742565b5b6020026020010151817fe6f62e16ef472440d0301b162d2119c48fd8c3e5aa6dff7d0bf041b44a4ff21e60405160405180910390a33373ffffffffffffffffffffffffffffffffffffffff167f7b8d0a3e0257d02a7feaa86c4e39d917b993b0ba3d3e7d90953280ee2ec0783184846040516118d4929190614e8f565b60405180910390a2505050565b60006015600085815260200190815260200160002080548060200260200160405190810160405280929190818152602001828054801561194057602002820191906000526020600020905b81548152602001906001019080831161192c575b505050505090508282905081511461198d576040517f08c379a000000000000000000000000000000000000000000000000000000000815260040161198490614f31565b60405180910390fd5b60005b8151811015611a9f5760008282815181106119ae576119ad614742565b5b602002602001015190508484838181106119cb576119ca614742565b5b90506020020135601460008381526020019081526020016000208190555060006119f482611eb2565b90506000611a0183610de0565b90506000611a0e84612693565b90506000611a2984848488612778909392919063ffffffff16565b9050611a358582612805565b848a7f9096bda702764e81614b9d2d2171d9132954a2bacd84152c291f567bcdbc2e988b8b8a818110611a6b57611a6a614742565b5b90506020020135604051611a7f9190613f6a565b60405180910390a350505050508080611a9790614c34565b915050611990565b5050505050565b600080611ab283610b0c565b90508073ffffffffffffffffffffffffffffffffffffffff168473ffffffffffffffffffffffffffffffffffffffff161480611af45750611af381856113b3565b5b80611b3257508373ffffffffffffffffffffffffffffffffffffffff16611b1a8461072e565b73ffffffffffffffffffffffffffffffffffffffff16145b91505092915050565b8273ffffffffffffffffffffffffffffffffffffffff16611b5b82610b0c565b73ffffffffffffffffffffffffffffffffffffffff1614611bb1576040517f08c379a0000000000000000000000000000000000000000000000000000000008152600401611ba890614fc3565b60405180910390fd5b600073ffffffffffffffffffffffffffffffffffffffff168273ffffffffffffffffffffffffffffffffffffffff1603611c20576040517f08c379a0000000000000000000000000000000000000000000000000000000008152600401611c1790615055565b60405180910390fd5b611c2d83838360016128a9565b8273ffffffffffffffffffffffffffffffffffffffff16611c4d82610b0c565b73ffffffffffffffffffffffffffffffffffffffff1614611ca3576040517f08c379a0000000000000000000000000000000000000000000000000000000008152600401611c9a90614fc3565b60405180910390fd5b6004600082815260200190815260200160002060006101000a81549073ffffffffffffffffffffffffffffffffffffffff02191690556001600360008573ffffffffffffffffffffffffffffffffffffffff1673ffffffffffffffffffffffffffffffffffffffff168152602001908152602001600020600082825403925050819055506001600360008473ffffffffffffffffffffffffffffffffffffffff1673ffffffffffffffffffffffffffffffffffffffff16815260200190815260200160002060008282540192505081905550816002600083815260200190815260200160002060006101000a81548173ffffffffffffffffffffffffffffffffffffffff021916908373ffffffffffffffffffffffffffffffffffffffff160217905550808273ffffffffffffffffffffffffffffffffffffffff168473ffffffffffffffffffffffffffffffffffffffff167fddf252ad1be2c89b69c2b068fc378daa952ba7f163c4a11628f55a4df523b3ef60405160405180910390a4611e2f83838360016128bb565b505050565b60006002600083815260200190815260200160002060009054906101000a900473ffffffffffffffffffffffffffffffffffffffff169050919050565b60008073ffffffffffffffffffffffffffffffffffffffff16611e9383611e34565b73ffffffffffffffffffffffffffffffffffffffff1614159050919050565b60606000601460008481526020019081526020016000205403611f0a576040517f08c379a0000000000000000000000000000000000000000000000000000000008152600401611f01906150c1565b60405180910390fd5b60006040518060400160405280601a81526020017f4142434445464748494a4b4c4d4e4f505152535455565758595a000000000000815250516014600085815260200190815260200160002054611f619190614aad565b905060006040518060400160405280601a81526020017f4142434445464748494a4b4c4d4e4f505152535455565758595a0000000000008152508281518110611fad57611fac614742565b5b602001015160f81c60f81b905080604051602001611fcb919061512e565b60405160208183030381529060405292505050919050565b60008060146000848152602001908152602001600020540361203a576040517f08c379a0000000000000000000000000000000000000000000000000000000008152600401612031906150c1565b60405180910390fd5b60006064601460008581526020019081526020016000205461205c9190614aad565b9050605f8110156120885760016003826120769190614aad565b6120809190615149565b91505061208e565b60049150505b919050565b600061209e826128c1565b9050919050565b8173ffffffffffffffffffffffffffffffffffffffff168373ffffffffffffffffffffffffffffffffffffffff1603612113576040517f08c379a000000000000000000000000000000000000000000000000000000000815260040161210a906151c9565b60405180910390fd5b80600560008573ffffffffffffffffffffffffffffffffffffffff1673ffffffffffffffffffffffffffffffffffffffff16815260200190815260200160002060008473ffffffffffffffffffffffffffffffffffffffff1673ffffffffffffffffffffffffffffffffffffffff16815260200190815260200160002060006101000a81548160ff0219169083151502179055508173ffffffffffffffffffffffffffffffffffffffff168373ffffffffffffffffffffffffffffffffffffffff167f17307eab39ab6107e8899845ad3d59bd9653f200f220920489ca2b5937696c31836040516122049190613d63565b60405180910390a3505050565b61221c848484611b3b565b61222884848484612bf6565b612267576040517f08c379a000000000000000000000000000000000000000000000000000000000815260040161225e9061525b565b60405180910390fd5b50505050565b6060612278826114e2565b6000600a600084815260200190815260200160002080546122989061440e565b80601f01602080910402602001604051908101604052809291908181526020018280546122c49061440e565b80156123115780601f106122e657610100808354040283529160200191612311565b820191906000526020600020905b8154815290600101906020018083116122f457829003601f168201915b505050505090506000612322612d7d565b9050600081510361233757819250505061237a565b60008251111561236c5780826040516020016123549291906152b7565b6040516020818303038152906040529250505061237a565b61237584612d94565b925050505b919050565b600b60009054906101000a900473ffffffffffffffffffffffffffffffffffffffff1673ffffffffffffffffffffffffffffffffffffffff163373ffffffffffffffffffffffffffffffffffffffff161461240f576040517f08c379a000000000000000000000000000000000000000000000000000000000815260040161240690615327565b60405180910390fd5b565b3373ffffffffffffffffffffffffffffffffffffffff168173ffffffffffffffffffffffffffffffffffffffff160361247f576040517f08c379a000000000000000000000000000000000000000000000000000000000815260040161247690615393565b60405180910390fd5b80600c60006101000a81548173ffffffffffffffffffffffffffffffffffffffff021916908373ffffffffffffffffffffffffffffffffffffffff1602179055508073ffffffffffffffffffffffffffffffffffffffff16600b60009054906101000a900473ffffffffffffffffffffffffffffffffffffffff1673ffffffffffffffffffffffffffffffffffffffff167fed8889f560326eb138920d842192f0eb3dd22b4f139c87a2c57538e05bae127860405160405180910390a350565b60007f780e9d63000000000000000000000000000000000000000000000000000000007bffffffffffffffffffffffffffffffffffffffffffffffffffffffff1916827bffffffffffffffffffffffffffffffffffffffffffffffffffffffff191614806125b257506125b182612dfc565b5b9050919050565b6001816000016000828254019250508190555050565b600081600001549050919050565b6125f7828260405180602001604052806000815250612ede565b5050565b60607f92fd13387c7fe7befbc38d303d6468778fb9731bc4583f17d92989c6fcfdeaaa8260405160240161262f91906153de565b604051602081830303815290604052907bffffffffffffffffffffffffffffffffffffffffffffffffffffffff19166020820180517bffffffffffffffffffffffffffffffffffffffffffffffffffffffff83818316178352505050509050919050565b606060008060006126a385612f39565b92509250925060006126b486611eb2565b905060006126c187610de0565b9050600f60009054906101000a900473ffffffffffffffffffffffffffffffffffffffff1673ffffffffffffffffffffffffffffffffffffffff16631ea7149486868686866040518663ffffffff1660e01b81526004016127269594939291906153f9565b600060405180830381865afa158015612743573d6000803e3d6000fd5b505050506040513d6000823e3d601f19601f8201168201806040525081019061276c9190614b7f565b95505050505050919050565b60606000612785836130f6565b905060006127928761326e565b61279b8661326e565b83886127a68961326e565b6040516020016127ba95949392919061573a565b604051602081830303815290604052905060006127d6826130f6565b9050806040516020016127e99190615829565b6040516020818303038152906040529350505050949350505050565b61280e82611e71565b61284d576040517f08c379a0000000000000000000000000000000000000000000000000000000008152600401612844906158bd565b60405180910390fd5b80600a6000848152602001908152602001600020908161286d9190615a7f565b507ff8e1a15aba9398e019f0b49df1a4fde98ee17ae345cb5f6b5e2c27f5033e8ce78260405161289d9190613f6a565b60405180910390a15050565b6128b58484848461333c565b50505050565b50505050565b6000806040518060400160405280600a81526020017f4145494f554c4e53545200000000000000000000000000000000000000000000815250905060006040518060400160405280600281526020017f4447000000000000000000000000000000000000000000000000000000000000815250905060006040518060400160405280600481526020017f42434d5000000000000000000000000000000000000000000000000000000000815250905060006040518060400160405280600581526020017f464856575900000000000000000000000000000000000000000000000000000081525090506129b4848761349a565b156129c6576001945050505050612bf1565b6129d0838761349a565b156129e2576002945050505050612bf1565b6129ec828761349a565b156129fe576003945050505050612bf1565b612a08818761349a565b15612a1a576004945050505050612bf1565b7f4b00000000000000000000000000000000000000000000000000000000000000867effffffffffffffffffffffffffffffffffffffffffffffffffffffffffffff191603612a70576005945050505050612bf1565b7f4a00000000000000000000000000000000000000000000000000000000000000867effffffffffffffffffffffffffffffffffffffffffffffffffffffffffffff19161480612b0157507f5800000000000000000000000000000000000000000000000000000000000000867effffffffffffffffffffffffffffffffffffffffffffffffffffffffffffff1916145b15612b13576008945050505050612bf1565b7f5100000000000000000000000000000000000000000000000000000000000000867effffffffffffffffffffffffffffffffffffffffffffffffffffffffffffff19161480612ba457507f5a00000000000000000000000000000000000000000000000000000000000000867effffffffffffffffffffffffffffffffffffffffffffffffffffffffffffff1916145b15612bb657600a945050505050612bf1565b6040517f08c379a0000000000000000000000000000000000000000000000000000000008152600401612be890615b9d565b60405180910390fd5b919050565b6000612c178473ffffffffffffffffffffffffffffffffffffffff1661353c565b15612d70578373ffffffffffffffffffffffffffffffffffffffff1663150b7a02612c4061152d565b8786866040518563ffffffff1660e01b8152600401612c629493929190615c07565b6020604051808303816000875af1925050508015612c9e57506040513d601f19601f82011682018060405250810190612c9b9190615c68565b60015b612d20573d8060008114612cce576040519150601f19603f3d011682016040523d82523d6000602084013e612cd3565b606091505b506000815103612d18576040517f08c379a0000000000000000000000000000000000000000000000000000000008152600401612d0f9061525b565b60405180910390fd5b805181602001fd5b63150b7a0260e01b7bffffffffffffffffffffffffffffffffffffffffffffffffffffffff1916817bffffffffffffffffffffffffffffffffffffffffffffffffffffffff191614915050612d75565b600190505b949350505050565b606060405180602001604052806000815250905090565b6060612d9f826114e2565b6000612da9612d7d565b90506000815111612dc95760405180602001604052806000815250612df4565b80612dd38461326e565b604051602001612de49291906152b7565b6040516020818303038152906040525b915050919050565b60007f80ac58cd000000000000000000000000000000000000000000000000000000007bffffffffffffffffffffffffffffffffffffffffffffffffffffffff1916827bffffffffffffffffffffffffffffffffffffffffffffffffffffffff19161480612ec757507f5b5e139f000000000000000000000000000000000000000000000000000000007bffffffffffffffffffffffffffffffffffffffffffffffffffffffff1916827bffffffffffffffffffffffffffffffffffffffffffffffffffffffff1916145b80612ed75750612ed68261355f565b5b9050919050565b612ee883836135c9565b612ef56000848484612bf6565b612f34576040517f08c379a0000000000000000000000000000000000000000000000000000000008152600401612f2b9061525b565b60405180910390fd5b505050565b60608060606000601460008681526020019081526020016000205403612f94576040517f08c379a0000000000000000000000000000000000000000000000000000000008152600401612f8b906150c1565b60405180910390fd5b6000600f60009054906101000a900473ffffffffffffffffffffffffffffffffffffffff1673ffffffffffffffffffffffffffffffffffffffff1663934434116040518163ffffffff1660e01b8152600401602060405180830381865afa158015613003573d6000803e3d6000fd5b505050506040513d601f19601f820116820180604052508101906130279190614a51565b60146000878152602001908152602001600020546130459190614aad565b9050600f60009054906101000a900473ffffffffffffffffffffffffffffffffffffffff1673ffffffffffffffffffffffffffffffffffffffff1663f3119682826040518263ffffffff1660e01b81526004016130a29190613f6a565b600060405180830381865afa1580156130bf573d6000803e3d6000fd5b505050506040513d6000823e3d601f19601f820116820180604052508101906130e89190615c95565b935093509350509193909250565b6060600082510361311857604051806020016040528060008152509050613269565b6000604051806060016040528060408152602001615f3b60409139905060006003600285516131479190615149565b6131519190615d3c565b600461315d9190614976565b9050600060208261316e9190615149565b67ffffffffffffffff811115613187576131866141b5565b5b6040519080825280601f01601f1916602001820160405280156131b95781602001600182028036833780820191505090505b509050818152600183018586518101602084015b81831015613228576003830192508251603f8160121c168501518253600182019150603f81600c1c168501518253600182019150603f8160061c168501518253600182019150603f81168501518253600182019150506131cd565b60038951066001811461324257600281146132525761325d565b613d3d60f01b600283035261325d565b603d60f81b60018303525b50505050508093505050505b919050565b60606000600161327d846137e6565b01905060008167ffffffffffffffff81111561329c5761329b6141b5565b5b6040519080825280601f01601f1916602001820160405280156132ce5781602001600182028036833780820191505090505b509050600082602001820190505b600115613331578080600190039150507f3031323334353637383961626364656600000000000000000000000000000000600a86061a8153600a858161332557613324614a7e565b5b049450600085036132dc575b819350505050919050565b61334884848484613939565b600181111561338c576040517f08c379a000000000000000000000000000000000000000000000000000000000815260040161338390615ddf565b60405180910390fd5b6000829050600073ffffffffffffffffffffffffffffffffffffffff168573ffffffffffffffffffffffffffffffffffffffff16036133d3576133ce8161393f565b613412565b8373ffffffffffffffffffffffffffffffffffffffff168573ffffffffffffffffffffffffffffffffffffffff1614613411576134108582613988565b5b5b600073ffffffffffffffffffffffffffffffffffffffff168473ffffffffffffffffffffffffffffffffffffffff16036134545761344f81613af5565b613493565b8473ffffffffffffffffffffffffffffffffffffffff168473ffffffffffffffffffffffffffffffffffffffff1614613492576134918482613bc6565b5b5b5050505050565b600080600090505b835181101561353057827effffffffffffffffffffffffffffffffffffffffffffffffffffffffffffff19168482815181106134e1576134e0614742565b5b602001015160f81c60f81b7effffffffffffffffffffffffffffffffffffffffffffffffffffffffffffff19160361351d576001915050613536565b808061352890614c34565b9150506134a2565b50600090505b92915050565b6000808273ffffffffffffffffffffffffffffffffffffffff163b119050919050565b60007f01ffc9a7000000000000000000000000000000000000000000000000000000007bffffffffffffffffffffffffffffffffffffffffffffffffffffffff1916827bffffffffffffffffffffffffffffffffffffffffffffffffffffffff1916149050919050565b600073ffffffffffffffffffffffffffffffffffffffff168273ffffffffffffffffffffffffffffffffffffffff1603613638576040517f08c379a000000000000000000000000000000000000000000000000000000000815260040161362f90615e4b565b60405180910390fd5b61364181611e71565b15613681576040517f08c379a000000000000000000000000000000000000000000000000000000000815260040161367890615eb7565b60405180910390fd5b61368f6000838360016128a9565b61369881611e71565b156136d8576040517f08c379a00000000000000000000000000000000000000000000000000000000081526004016136cf90615eb7565b60405180910390fd5b6001600360008473ffffffffffffffffffffffffffffffffffffffff1673ffffffffffffffffffffffffffffffffffffffff16815260200190815260200160002060008282540192505081905550816002600083815260200190815260200160002060006101000a81548173ffffffffffffffffffffffffffffffffffffffff021916908373ffffffffffffffffffffffffffffffffffffffff160217905550808273ffffffffffffffffffffffffffffffffffffffff16600073ffffffffffffffffffffffffffffffffffffffff167fddf252ad1be2c89b69c2b068fc378daa952ba7f163c4a11628f55a4df523b3ef60405160405180910390a46137e26000838360016128bb565b5050565b600080600090507a184f03e93ff9f4daa797ed6e38ed64bf6a1f0100000000000000008310613844577a184f03e93ff9f4daa797ed6e38ed64bf6a1f010000000000000000838161383a57613839614a7e565b5b0492506040810190505b6d04ee2d6d415b85acef81000000008310613881576d04ee2d6d415b85acef8100000000838161387757613876614a7e565b5b0492506020810190505b662386f26fc1000083106138b057662386f26fc1000083816138a6576138a5614a7e565b5b0492506010810190505b6305f5e10083106138d9576305f5e10083816138cf576138ce614a7e565b5b0492506008810190505b61271083106138fe5761271083816138f4576138f3614a7e565b5b0492506004810190505b60648310613921576064838161391757613916614a7e565b5b0492506002810190505b600a8310613930576001810190505b80915050919050565b50505050565b6008805490506009600083815260200190815260200160002081905550600881908060018154018082558091505060019003906000526020600020016000909190919091505550565b6000600161399584610b92565b61399f9190615ed7565b9050600060076000848152602001908152602001600020549050818114613a84576000600660008673ffffffffffffffffffffffffffffffffffffffff1673ffffffffffffffffffffffffffffffffffffffff168152602001908152602001600020600084815260200190815260200160002054905080600660008773ffffffffffffffffffffffffffffffffffffffff1673ffffffffffffffffffffffffffffffffffffffff168152602001908152602001600020600084815260200190815260200160002081905550816007600083815260200190815260200160002081905550505b6007600084815260200190815260200160002060009055600660008573ffffffffffffffffffffffffffffffffffffffff1673ffffffffffffffffffffffffffffffffffffffff16815260200190815260200160002060008381526020019081526020016000206000905550505050565b60006001600880549050613b099190615ed7565b9050600060096000848152602001908152602001600020549050600060088381548110613b3957613b38614742565b5b906000526020600020015490508060088381548110613b5b57613b5a614742565b5b906000526020600020018190555081600960008381526020019081526020016000208190555060096000858152602001908152602001600020600090556008805480613baa57613ba9615f0b565b5b6001900381819060005260206000200160009055905550505050565b6000613bd183610b92565b905081600660008573ffffffffffffffffffffffffffffffffffffffff1673ffffffffffffffffffffffffffffffffffffffff168152602001908152602001600020600083815260200190815260200160002081905550806007600084815260200190815260200160002081905550505050565b828054828255906000526020600020908101928215613c81579160200282015b82811115613c80578251825591602001919060010190613c65565b5b509050613c8e9190613c92565b5090565b5b80821115613cab576000816000905550600101613c93565b5090565b6000604051905090565b600080fd5b600080fd5b60007fffffffff0000000000000000000000000000000000000000000000000000000082169050919050565b613cf881613cc3565b8114613d0357600080fd5b50565b600081359050613d1581613cef565b92915050565b600060208284031215613d3157613d30613cb9565b5b6000613d3f84828501613d06565b91505092915050565b60008115159050919050565b613d5d81613d48565b82525050565b6000602082019050613d786000830184613d54565b92915050565b600081519050919050565b600082825260208201905092915050565b60005b83811015613db8578082015181840152602081019050613d9d565b60008484015250505050565b6000601f19601f8301169050919050565b6000613de082613d7e565b613dea8185613d89565b9350613dfa818560208601613d9a565b613e0381613dc4565b840191505092915050565b60006020820190508181036000830152613e288184613dd5565b905092915050565b6000819050919050565b613e4381613e30565b8114613e4e57600080fd5b50565b600081359050613e6081613e3a565b92915050565b600060208284031215613e7c57613e7b613cb9565b5b6000613e8a84828501613e51565b91505092915050565b600073ffffffffffffffffffffffffffffffffffffffff82169050919050565b6000613ebe82613e93565b9050919050565b613ece81613eb3565b82525050565b6000602082019050613ee96000830184613ec5565b92915050565b613ef881613eb3565b8114613f0357600080fd5b50565b600081359050613f1581613eef565b92915050565b60008060408385031215613f3257613f31613cb9565b5b6000613f4085828601613f06565b9250506020613f5185828601613e51565b9150509250929050565b613f6481613e30565b82525050565b6000602082019050613f7f6000830184613f5b565b92915050565b600080fd5b600080fd5b600080fd5b60008083601f840112613faa57613fa9613f85565b5b8235905067ffffffffffffffff811115613fc757613fc6613f8a565b5b602083019150836020820283011115613fe357613fe2613f8f565b5b9250929050565b60008060006040848603121561400357614002613cb9565b5b600061401186828701613e51565b935050602084013567ffffffffffffffff81111561403257614031613cbe565b5b61403e86828701613f94565b92509250509250925092565b60008060006060848603121561406357614062613cb9565b5b600061407186828701613f06565b935050602061408286828701613f06565b925050604061409386828701613e51565b9150509250925092565b6000602082840312156140b3576140b2613cb9565b5b60006140c184828501613f06565b91505092915050565b6000819050919050565b60006140ef6140ea6140e584613e93565b6140ca565b613e93565b9050919050565b6000614101826140d4565b9050919050565b6000614113826140f6565b9050919050565b61412381614108565b82525050565b600060208201905061413e600083018461411a565b92915050565b61414d81613d48565b811461415857600080fd5b50565b60008135905061416a81614144565b92915050565b6000806040838503121561418757614186613cb9565b5b600061419585828601613f06565b92505060206141a68582860161415b565b9150509250929050565b600080fd5b7f4e487b7100000000000000000000000000000000000000000000000000000000600052604160045260246000fd5b6141ed82613dc4565b810181811067ffffffffffffffff8211171561420c5761420b6141b5565b5b80604052505050565b600061421f613caf565b905061422b82826141e4565b919050565b600067ffffffffffffffff82111561424b5761424a6141b5565b5b61425482613dc4565b9050602081019050919050565b82818337600083830152505050565b600061428361427e84614230565b614215565b90508281526020810184848401111561429f5761429e6141b0565b5b6142aa848285614261565b509392505050565b600082601f8301126142c7576142c6613f85565b5b81356142d7848260208601614270565b91505092915050565b600080600080608085870312156142fa576142f9613cb9565b5b600061430887828801613f06565b945050602061431987828801613f06565b935050604061432a87828801613e51565b925050606085013567ffffffffffffffff81111561434b5761434a613cbe565b5b614357878288016142b2565b91505092959194509250565b6000806040838503121561437a57614379613cb9565b5b600061438885828601613f06565b925050602061439985828601613f06565b9150509250929050565b60006143ae826140f6565b9050919050565b6143be816143a3565b82525050565b60006020820190506143d960008301846143b5565b92915050565b7f4e487b7100000000000000000000000000000000000000000000000000000000600052602260045260246000fd5b6000600282049050600182168061442657607f821691505b602082108103614439576144386143df565b5b50919050565b7f4552433732313a20617070726f76616c20746f2063757272656e74206f776e6560008201527f7200000000000000000000000000000000000000000000000000000000000000602082015250565b600061449b602183613d89565b91506144a68261443f565b604082019050919050565b600060208201905081810360008301526144ca8161448e565b9050919050565b7f4552433732313a20617070726f76652063616c6c6572206973206e6f7420746f60008201527f6b656e206f776e6572206f7220617070726f76656420666f7220616c6c000000602082015250565b600061452d603d83613d89565b9150614538826144d1565b604082019050919050565b6000602082019050818103600083015261455c81614520565b9050919050565b60006040820190506145786000830185613ec5565b6145856020830184613ec5565b9392505050565b7f4552433732313a2063616c6c6572206973206e6f7420746f6b656e206f776e6560008201527f72206f7220617070726f76656400000000000000000000000000000000000000602082015250565b60006145e8602d83613d89565b91506145f38261458c565b604082019050919050565b60006020820190508181036000830152614617816145db565b9050919050565b7f455243373231456e756d657261626c653a206f776e657220696e646578206f7560008201527f74206f6620626f756e6473000000000000000000000000000000000000000000602082015250565b600061467a602b83613d89565b91506146858261461e565b604082019050919050565b600060208201905081810360008301526146a98161466d565b9050919050565b7f455243373231456e756d657261626c653a20676c6f62616c20696e646578206f60008201527f7574206f6620626f756e64730000000000000000000000000000000000000000602082015250565b600061470c602c83613d89565b9150614717826146b0565b604082019050919050565b6000602082019050818103600083015261473b816146ff565b9050919050565b7f4e487b7100000000000000000000000000000000000000000000000000000000600052603260045260246000fd5b7f4552433732313a20696e76616c696420746f6b656e2049440000000000000000600082015250565b60006147a7601883613d89565b91506147b282614771565b602082019050919050565b600060208201905081810360008301526147d68161479a565b9050919050565b7f4552433732313a2061646472657373207a65726f206973206e6f74206120766160008201527f6c6964206f776e65720000000000000000000000000000000000000000000000602082015250565b6000614839602983613d89565b9150614844826147dd565b604082019050919050565b600060208201905081810360008301526148688161482c565b9050919050565b7f4d7573742062652070726f706f736564206f776e657200000000000000000000600082015250565b60006148a5601683613d89565b91506148b08261486f565b602082019050919050565b600060208201905081810360008301526148d481614898565b9050919050565b7f6e6f742065786973740000000000000000000000000000000000000000000000600082015250565b6000614911600983613d89565b915061491c826148db565b602082019050919050565b6000602082019050818103600083015261494081614904565b9050919050565b7f4e487b7100000000000000000000000000000000000000000000000000000000600052601160045260246000fd5b600061498182613e30565b915061498c83613e30565b925082820261499a81613e30565b915082820484148315176149b1576149b0614947565b5b5092915050565b60006060820190506149cd6000830186613ec5565b6149da6020830185613ec5565b6149e76040830184613ec5565b949350505050565b6000819050919050565b614a0a614a0582613e30565b6149ef565b82525050565b6000614a1c82856149f9565b602082019150614a2c82846149f9565b6020820191508190509392505050565b600081519050614a4b81613e3a565b92915050565b600060208284031215614a6757614a66613cb9565b5b6000614a7584828501614a3c565b91505092915050565b7f4e487b7100000000000000000000000000000000000000000000000000000000600052601260045260246000fd5b6000614ab882613e30565b9150614ac383613e30565b925082614ad357614ad2614a7e565b5b828206905092915050565b600067ffffffffffffffff821115614af957614af86141b5565b5b614b0282613dc4565b9050602081019050919050565b6000614b22614b1d84614ade565b614215565b905082815260208101848484011115614b3e57614b3d6141b0565b5b614b49848285613d9a565b509392505050565b600082601f830112614b6657614b65613f85565b5b8151614b76848260208601614b0f565b91505092915050565b600060208284031215614b9557614b94613cb9565b5b600082015167ffffffffffffffff811115614bb357614bb2613cbe565b5b614bbf84828501614b51565b91505092915050565b7f496e73756666696369656e74207061796d656e74000000000000000000000000600082015250565b6000614bfe601483613d89565b9150614c0982614bc8565b602082019050919050565b60006020820190508181036000830152614c2d81614bf1565b9050919050565b6000614c3f82613e30565b91507fffffffffffffffffffffffffffffffffffffffffffffffffffffffffffffffff8203614c7157614c70614947565b5b600182019050919050565b6000819050919050565b614c8f81614c7c565b82525050565b614c9e81613e30565b82525050565b600061ffff82169050919050565b614cbb81614ca4565b82525050565b600063ffffffff82169050919050565b614cda81614cc1565b82525050565b600081519050919050565b600082825260208201905092915050565b6000614d0782614ce0565b614d118185614ceb565b9350614d21818560208601613d9a565b614d2a81613dc4565b840191505092915050565b600060c083016000830151614d4d6000860182614c86565b506020830151614d606020860182614c95565b506040830151614d736040860182614cb2565b506060830151614d866060860182614cd1565b506080830151614d996080860182614cd1565b5060a083015184820360a0860152614db18282614cfc565b9150508091505092915050565b60006020820190508181036000830152614dd88184614d35565b905092915050565b600081519050919050565b600082825260208201905092915050565b6000819050602082019050919050565b6000614e188383614c95565b60208301905092915050565b6000602082019050919050565b6000614e3c82614de0565b614e468185614deb565b9350614e5183614dfc565b8060005b83811015614e82578151614e698882614e0c565b9750614e7483614e24565b925050600181019050614e55565b5085935050505092915050565b6000604082019050614ea46000830185613f5b565b8181036020830152614eb68184614e31565b90509392505050565b7f4d69736d6174636820696e2072616e646f6d20776f72647320616e6420746f6b60008201527f656e204944730000000000000000000000000000000000000000000000000000602082015250565b6000614f1b602683613d89565b9150614f2682614ebf565b604082019050919050565b60006020820190508181036000830152614f4a81614f0e565b9050919050565b7f4552433732313a207472616e736665722066726f6d20696e636f72726563742060008201527f6f776e6572000000000000000000000000000000000000000000000000000000602082015250565b6000614fad602583613d89565b9150614fb882614f51565b604082019050919050565b60006020820190508181036000830152614fdc81614fa0565b9050919050565b7f4552433732313a207472616e7366657220746f20746865207a65726f2061646460008201527f7265737300000000000000000000000000000000000000000000000000000000602082015250565b600061503f602483613d89565b915061504a82614fe3565b604082019050919050565b6000602082019050818103600083015261506e81615032565b9050919050565b7f52616e646f6d6e657373206e6f74207265636569766564207965740000000000600082015250565b60006150ab601b83613d89565b91506150b682615075565b602082019050919050565b600060208201905081810360008301526150da8161509e565b9050919050565b60007fff0000000000000000000000000000000000000000000000000000000000000082169050919050565b6000819050919050565b615128615123826150e1565b61510d565b82525050565b600061513a8284615117565b60018201915081905092915050565b600061515482613e30565b915061515f83613e30565b925082820190508082111561517757615176614947565b5b92915050565b7f4552433732313a20617070726f766520746f2063616c6c657200000000000000600082015250565b60006151b3601983613d89565b91506151be8261517d565b602082019050919050565b600060208201905081810360008301526151e2816151a6565b9050919050565b7f4552433732313a207472616e7366657220746f206e6f6e20455243373231526560008201527f63656976657220696d706c656d656e7465720000000000000000000000000000602082015250565b6000615245603283613d89565b9150615250826151e9565b604082019050919050565b6000602082019050818103600083015261527481615238565b9050919050565b600081905092915050565b600061529182613d7e565b61529b818561527b565b93506152ab818560208601613d9a565b80840191505092915050565b60006152c38285615286565b91506152cf8284615286565b91508190509392505050565b7f4f6e6c792063616c6c61626c65206279206f776e657200000000000000000000600082015250565b6000615311601683613d89565b915061531c826152db565b602082019050919050565b6000602082019050818103600083015261534081615304565b9050919050565b7f43616e6e6f74207472616e7366657220746f2073656c66000000000000000000600082015250565b600061537d601783613d89565b915061538882615347565b602082019050919050565b600060208201905081810360008301526153ac81615370565b9050919050565b6153bc81613d48565b82525050565b6020820160008201516153d860008501826153b3565b50505050565b60006020820190506153f360008301846153c2565b92915050565b600060a08201905081810360008301526154138188613dd5565b905081810360208301526154278187613dd5565b9050818103604083015261543b8186613dd5565b9050818103606083015261544f8185613dd5565b905061545e6080830184613f5b565b9695505050505050565b7f7b226e616d65223a226c65747465722023000000000000000000000000000000600082015250565b600061549e60118361527b565b91506154a982615468565b601182019050919050565b7f222c226465736372697074696f6e223a22776f72746820000000000000000000600082015250565b60006154ea60178361527b565b91506154f5826154b4565b601782019050919050565b7f20706f696e747320696e20776f7264732e66756e222c00000000000000000000600082015250565b600061553660168361527b565b915061554182615500565b601682019050919050565b7f22696d616765223a22646174613a696d6167652f7376672b786d6c3b6261736560008201527f36342c0000000000000000000000000000000000000000000000000000000000602082015250565b60006155a860238361527b565b91506155b38261554c565b602382019050919050565b7f222c000000000000000000000000000000000000000000000000000000000000600082015250565b60006155f460028361527b565b91506155ff826155be565b600282019050919050565b7f2261747472696275746573223a5b7b2274726169745f74797065223a224c657460008201527f746572222c2276616c7565223a22000000000000000000000000000000000000602082015250565b6000615666602e8361527b565b91506156718261560a565b602e82019050919050565b7f227d2c7b2274726169745f74797065223a22506f696e7473222c2276616c756560008201527f223a000000000000000000000000000000000000000000000000000000000000602082015250565b60006156d860228361527b565b91506156e38261567c565b602282019050919050565b7f7d5d7d0000000000000000000000000000000000000000000000000000000000600082015250565b600061572460038361527b565b915061572f826156ee565b600382019050919050565b600061574582615491565b91506157518288615286565b915061575c826154dd565b91506157688287615286565b915061577382615529565b915061577e8261559b565b915061578a8286615286565b9150615795826155e7565b91506157a082615659565b91506157ac8285615286565b91506157b7826156cb565b91506157c38284615286565b91506157ce82615717565b91508190509695505050505050565b7f646174613a6170706c69636174696f6e2f6a736f6e3b6261736536342c000000600082015250565b6000615813601d8361527b565b915061581e826157dd565b601d82019050919050565b600061583482615806565b91506158408284615286565b915081905092915050565b7f45524337323155524953746f726167653a2055524920736574206f66206e6f6e60008201527f6578697374656e7420746f6b656e000000000000000000000000000000000000602082015250565b60006158a7602e83613d89565b91506158b28261584b565b604082019050919050565b600060208201905081810360008301526158d68161589a565b9050919050565b60008190508160005260206000209050919050565b60006020601f8301049050919050565b600082821b905092915050565b60006008830261593f7fffffffffffffffffffffffffffffffffffffffffffffffffffffffffffffffff82615902565b6159498683615902565b95508019841693508086168417925050509392505050565b600061597c61597761597284613e30565b6140ca565b613e30565b9050919050565b6000819050919050565b61599683615961565b6159aa6159a282615983565b84845461590f565b825550505050565b600090565b6159bf6159b2565b6159ca81848461598d565b505050565b5b818110156159ee576159e36000826159b7565b6001810190506159d0565b5050565b601f821115615a3357615a04816158dd565b615a0d846158f2565b81016020851015615a1c578190505b615a30615a28856158f2565b8301826159cf565b50505b505050565b600082821c905092915050565b6000615a5660001984600802615a38565b1980831691505092915050565b6000615a6f8383615a45565b9150826002028217905092915050565b615a8882613d7e565b67ffffffffffffffff811115615aa157615aa06141b5565b5b615aab825461440e565b615ab68282856159f2565b600060209050601f831160018114615ae95760008415615ad7578287015190505b615ae18582615a63565b865550615b49565b601f198416615af7866158dd565b60005b82811015615b1f57848901518255600182019150602085019450602081019050615afa565b86831015615b3c5784890151615b38601f891682615a45565b8355505b6001600288020188555050505b505050505050565b7f496e76616c6964206c6574746572000000000000000000000000000000000000600082015250565b6000615b87600e83613d89565b9150615b9282615b51565b602082019050919050565b60006020820190508181036000830152615bb681615b7a565b9050919050565b600082825260208201905092915050565b6000615bd982614ce0565b615be38185615bbd565b9350615bf3818560208601613d9a565b615bfc81613dc4565b840191505092915050565b6000608082019050615c1c6000830187613ec5565b615c296020830186613ec5565b615c366040830185613f5b565b8181036060830152615c488184615bce565b905095945050505050565b600081519050615c6281613cef565b92915050565b600060208284031215615c7e57615c7d613cb9565b5b6000615c8c84828501615c53565b91505092915050565b600080600060608486031215615cae57615cad613cb9565b5b600084015167ffffffffffffffff811115615ccc57615ccb613cbe565b5b615cd886828701614b51565b935050602084015167ffffffffffffffff811115615cf957615cf8613cbe565b5b615d0586828701614b51565b925050604084015167ffffffffffffffff811115615d2657615d25613cbe565b5b615d3286828701614b51565b9150509250925092565b6000615d4782613e30565b9150615d5283613e30565b925082615d6257615d61614a7e565b5b828204905092915050565b7f455243373231456e756d657261626c653a20636f6e736563757469766520747260008201527f616e7366657273206e6f7420737570706f727465640000000000000000000000602082015250565b6000615dc9603583613d89565b9150615dd482615d6d565b604082019050919050565b60006020820190508181036000830152615df881615dbc565b9050919050565b7f4552433732313a206d696e7420746f20746865207a65726f2061646472657373600082015250565b6000615e35602083613d89565b9150615e4082615dff565b602082019050919050565b60006020820190508181036000830152615e6481615e28565b9050919050565b7f4552433732313a20746f6b656e20616c7265616479206d696e74656400000000600082015250565b6000615ea1601c83613d89565b9150615eac82615e6b565b602082019050919050565b60006020820190508181036000830152615ed081615e94565b9050919050565b6000615ee282613e30565b9150615eed83613e30565b9250828203905081811115615f0557615f04614947565b5b92915050565b7f4e487b7100000000000000000000000000000000000000000000000000000000600052603160045260246000fdfe4142434445464748494a4b4c4d4e4f505152535455565758595a6162636465666768696a6b6c6d6e6f707172737475767778797a303132333435363738392b2fa264697066735822122038f87a4f6e67f2140b2ddcfa683d9b982f2a4a743282d036ea1a81b2b8c357f864736f6c63430008130033",
  "devdoc": {
    "events": {
      "Approval(address,address,uint256)": {
        "details": "Emitted when `owner` enables `approved` to manage the `tokenId` token."
      },
      "ApprovalForAll(address,address,bool)": {
        "details": "Emitted when `owner` enables or disables (`approved`) `operator` to manage all of its assets."
      },
      "BatchMetadataUpdate(uint256,uint256)": {
        "details": "This event emits when the metadata of a range of tokens is changed. So that the third-party platforms such as NFT market could timely update the images and related attributes of the NFTs."
      },
      "MetadataUpdate(uint256)": {
        "details": "This event emits when the metadata of a token is changed. So that the third-party platforms such as NFT market could timely update the images and related attributes of the NFT."
      },
      "Transfer(address,address,uint256)": {
        "details": "Emitted when `tokenId` token is transferred from `from` to `to`."
      }
    },
    "kind": "dev",
    "methods": {
      "approve(address,uint256)": {
        "details": "See {IERC721-approve}."
      },
      "balanceOf(address)": {
        "details": "See {IERC721-balanceOf}."
      },
      "getApproved(uint256)": {
        "details": "See {IERC721-getApproved}."
      },
      "isApprovedForAll(address,address)": {
        "details": "See {IERC721-isApprovedForAll}."
      },
      "name()": {
        "details": "See {IERC721Metadata-name}."
      },
      "ownerOf(uint256)": {
        "details": "See {IERC721-ownerOf}."
      },
      "safeTransferFrom(address,address,uint256)": {
        "details": "See {IERC721-safeTransferFrom}."
      },
      "safeTransferFrom(address,address,uint256,bytes)": {
        "details": "See {IERC721-safeTransferFrom}."
      },
      "setApprovalForAll(address,bool)": {
        "details": "See {IERC721-setApprovalForAll}."
      },
      "symbol()": {
        "details": "See {IERC721Metadata-symbol}."
      },
      "tokenByIndex(uint256)": {
        "details": "See {IERC721Enumerable-tokenByIndex}."
      },
      "tokenOfOwnerByIndex(address,uint256)": {
        "details": "See {IERC721Enumerable-tokenOfOwnerByIndex}."
      },
      "totalSupply()": {
        "details": "See {IERC721Enumerable-totalSupply}."
      },
      "transferFrom(address,address,uint256)": {
        "details": "See {IERC721-transferFrom}."
      }
    },
    "version": 1
  },
  "userdoc": {
    "kind": "user",
    "methods": {
      "acceptOwnership()": {
        "notice": "Allows an ownership transfer to be completed by the recipient."
      },
      "owner()": {
        "notice": "Get the current owner"
      },
      "setCoordinator(address)": {
        "notice": "Sets the VRF Coordinator addressThis method should only be callable by the coordinator or contract owner"
      },
      "transferOwnership(address)": {
        "notice": "Allows an owner to begin transferring ownership to a new address."
      }
    },
    "version": 1
  },
  "storageLayout": {
    "storage": [
      {
        "astId": 692,
        "contract": "contracts/YourCollectible.sol:WordsFun",
        "label": "_name",
        "offset": 0,
        "slot": "0",
        "type": "t_string_storage"
      },
      {
        "astId": 694,
        "contract": "contracts/YourCollectible.sol:WordsFun",
        "label": "_symbol",
        "offset": 0,
        "slot": "1",
        "type": "t_string_storage"
      },
      {
        "astId": 698,
        "contract": "contracts/YourCollectible.sol:WordsFun",
        "label": "_owners",
        "offset": 0,
        "slot": "2",
        "type": "t_mapping(t_uint256,t_address)"
      },
      {
        "astId": 702,
        "contract": "contracts/YourCollectible.sol:WordsFun",
        "label": "_balances",
        "offset": 0,
        "slot": "3",
        "type": "t_mapping(t_address,t_uint256)"
      },
      {
        "astId": 706,
        "contract": "contracts/YourCollectible.sol:WordsFun",
        "label": "_tokenApprovals",
        "offset": 0,
        "slot": "4",
        "type": "t_mapping(t_uint256,t_address)"
      },
      {
        "astId": 712,
        "contract": "contracts/YourCollectible.sol:WordsFun",
        "label": "_operatorApprovals",
        "offset": 0,
        "slot": "5",
        "type": "t_mapping(t_address,t_mapping(t_address,t_bool))"
      },
      {
        "astId": 1742,
        "contract": "contracts/YourCollectible.sol:WordsFun",
        "label": "_ownedTokens",
        "offset": 0,
        "slot": "6",
        "type": "t_mapping(t_address,t_mapping(t_uint256,t_uint256))"
      },
      {
        "astId": 1746,
        "contract": "contracts/YourCollectible.sol:WordsFun",
        "label": "_ownedTokensIndex",
        "offset": 0,
        "slot": "7",
        "type": "t_mapping(t_uint256,t_uint256)"
      },
      {
        "astId": 1749,
        "contract": "contracts/YourCollectible.sol:WordsFun",
        "label": "_allTokens",
        "offset": 0,
        "slot": "8",
        "type": "t_array(t_uint256)dyn_storage"
      },
      {
        "astId": 1753,
        "contract": "contracts/YourCollectible.sol:WordsFun",
        "label": "_allTokensIndex",
        "offset": 0,
        "slot": "9",
        "type": "t_mapping(t_uint256,t_uint256)"
      },
      {
        "astId": 2097,
        "contract": "contracts/YourCollectible.sol:WordsFun",
        "label": "_tokenURIs",
        "offset": 0,
        "slot": "10",
        "type": "t_mapping(t_uint256,t_string_storage)"
      },
      {
        "astId": 29,
        "contract": "contracts/YourCollectible.sol:WordsFun",
        "label": "s_owner",
        "offset": 0,
        "slot": "11",
        "type": "t_address"
      },
      {
        "astId": 31,
        "contract": "contracts/YourCollectible.sol:WordsFun",
        "label": "s_pendingOwner",
        "offset": 0,
        "slot": "12",
        "type": "t_address"
      },
      {
        "astId": 231,
        "contract": "contracts/YourCollectible.sol:WordsFun",
        "label": "s_vrfCoordinator",
        "offset": 0,
        "slot": "13",
        "type": "t_contract(IVRFCoordinatorV2Plus)380"
      },
      {
        "astId": 4351,
        "contract": "contracts/YourCollectible.sol:WordsFun",
        "label": "_tokenIds",
        "offset": 0,
        "slot": "14",
        "type": "t_struct(Counter)2661_storage"
      },
      {
        "astId": 4354,
        "contract": "contracts/YourCollectible.sol:WordsFun",
        "label": "colors",
        "offset": 0,
        "slot": "15",
        "type": "t_contract(ILibraryColors)4332"
      },
      {
        "astId": 4369,
        "contract": "contracts/YourCollectible.sol:WordsFun",
        "label": "s_vrfConfig",
        "offset": 0,
        "slot": "16",
        "type": "t_struct(VRFConfig)4366_storage"
      },
      {
        "astId": 4385,
        "contract": "contracts/YourCollectible.sol:WordsFun",
        "label": "s_requestIdToTokenId",
        "offset": 0,
        "slot": "19",
        "type": "t_mapping(t_uint256,t_uint256)"
      },
      {
        "astId": 4389,
        "contract": "contracts/YourCollectible.sol:WordsFun",
        "label": "s_tokenIdToRandomWord",
        "offset": 0,
        "slot": "20",
        "type": "t_mapping(t_uint256,t_uint256)"
      },
      {
        "astId": 4394,
        "contract": "contracts/YourCollectible.sol:WordsFun",
        "label": "s_requestIdToTokenIds",
        "offset": 0,
        "slot": "21",
        "type": "t_mapping(t_uint256,t_array(t_uint256)dyn_storage)"
      }
    ],
    "types": {
      "t_address": {
        "encoding": "inplace",
        "label": "address",
        "numberOfBytes": "20"
      },
      "t_array(t_uint256)dyn_storage": {
        "base": "t_uint256",
        "encoding": "dynamic_array",
        "label": "uint256[]",
        "numberOfBytes": "32"
      },
      "t_bool": {
        "encoding": "inplace",
        "label": "bool",
        "numberOfBytes": "1"
      },
      "t_bytes32": {
        "encoding": "inplace",
        "label": "bytes32",
        "numberOfBytes": "32"
      },
      "t_contract(ILibraryColors)4332": {
        "encoding": "inplace",
        "label": "contract ILibraryColors",
        "numberOfBytes": "20"
      },
      "t_contract(IVRFCoordinatorV2Plus)380": {
        "encoding": "inplace",
        "label": "contract IVRFCoordinatorV2Plus",
        "numberOfBytes": "20"
      },
      "t_mapping(t_address,t_bool)": {
        "encoding": "mapping",
        "key": "t_address",
        "label": "mapping(address => bool)",
        "numberOfBytes": "32",
        "value": "t_bool"
      },
      "t_mapping(t_address,t_mapping(t_address,t_bool))": {
        "encoding": "mapping",
        "key": "t_address",
        "label": "mapping(address => mapping(address => bool))",
        "numberOfBytes": "32",
        "value": "t_mapping(t_address,t_bool)"
      },
      "t_mapping(t_address,t_mapping(t_uint256,t_uint256))": {
        "encoding": "mapping",
        "key": "t_address",
        "label": "mapping(address => mapping(uint256 => uint256))",
        "numberOfBytes": "32",
        "value": "t_mapping(t_uint256,t_uint256)"
      },
      "t_mapping(t_address,t_uint256)": {
        "encoding": "mapping",
        "key": "t_address",
        "label": "mapping(address => uint256)",
        "numberOfBytes": "32",
        "value": "t_uint256"
      },
      "t_mapping(t_uint256,t_address)": {
        "encoding": "mapping",
        "key": "t_uint256",
        "label": "mapping(uint256 => address)",
        "numberOfBytes": "32",
        "value": "t_address"
      },
      "t_mapping(t_uint256,t_array(t_uint256)dyn_storage)": {
        "encoding": "mapping",
        "key": "t_uint256",
        "label": "mapping(uint256 => uint256[])",
        "numberOfBytes": "32",
        "value": "t_array(t_uint256)dyn_storage"
      },
      "t_mapping(t_uint256,t_string_storage)": {
        "encoding": "mapping",
        "key": "t_uint256",
        "label": "mapping(uint256 => string)",
        "numberOfBytes": "32",
        "value": "t_string_storage"
      },
      "t_mapping(t_uint256,t_uint256)": {
        "encoding": "mapping",
        "key": "t_uint256",
        "label": "mapping(uint256 => uint256)",
        "numberOfBytes": "32",
        "value": "t_uint256"
      },
      "t_string_storage": {
        "encoding": "bytes",
        "label": "string",
        "numberOfBytes": "32"
      },
      "t_struct(Counter)2661_storage": {
        "encoding": "inplace",
        "label": "struct Counters.Counter",
        "members": [
          {
            "astId": 2660,
            "contract": "contracts/YourCollectible.sol:WordsFun",
            "label": "_value",
            "offset": 0,
            "slot": "0",
            "type": "t_uint256"
          }
        ],
        "numberOfBytes": "32"
      },
      "t_struct(VRFConfig)4366_storage": {
        "encoding": "inplace",
        "label": "struct WordsFun.VRFConfig",
        "members": [
          {
            "astId": 4359,
            "contract": "contracts/YourCollectible.sol:WordsFun",
            "label": "subscriptionId",
            "offset": 0,
            "slot": "0",
            "type": "t_uint256"
          },
          {
            "astId": 4361,
            "contract": "contracts/YourCollectible.sol:WordsFun",
            "label": "keyHash",
            "offset": 0,
            "slot": "1",
            "type": "t_bytes32"
          },
          {
            "astId": 4363,
            "contract": "contracts/YourCollectible.sol:WordsFun",
            "label": "callbackGasLimit",
            "offset": 0,
            "slot": "2",
            "type": "t_uint32"
          },
          {
            "astId": 4365,
            "contract": "contracts/YourCollectible.sol:WordsFun",
            "label": "requestConfirmations",
            "offset": 4,
            "slot": "2",
            "type": "t_uint16"
          }
        ],
        "numberOfBytes": "96"
      },
      "t_uint16": {
        "encoding": "inplace",
        "label": "uint16",
        "numberOfBytes": "2"
      },
      "t_uint256": {
        "encoding": "inplace",
        "label": "uint256",
        "numberOfBytes": "32"
      },
      "t_uint32": {
        "encoding": "inplace",
        "label": "uint32",
        "numberOfBytes": "4"
      }
    }
  }
}